:100000000C942A000C9447000C9447000C94470071
:100010000C9447000C9447000C9447000C94470044
:100020000C946E000C9447000C9447000C9447000D
:100030000C9447000C9447000C9447000C94470024
:100040000C9447000C9447000C9447000C94470014
:100050000C94470011241FBECFE5D4E0DEBFCDBF16
:1000600010E0A0E6B0E0E4E2F2E002C005900D92FC
:10007000A038B107D9F720E0A0E8B0E001C01D9298
:10008000A138B207E1F70E9489000C9410010C948A
:100090000000FC019191911101C0089592BBA89AB2
:1000A000A998AA9A85E08A95F1F70000AA988FE9A5
:1000B0009FE00197F1F700C00000ECCF82BBA89849
:1000C000A998AA9A85E08A95F1F70000AA988FED81
:1000D0009EE20197F1F700C0000008951F920F9271
:1000E0000FB60F9211248F939F9385EE99EF9DBDCC
:1000F0008CBD8BB390E189278BBB809180008F5F93
:10010000809380009F918F910F900FBE0F901F9052
:100110001895CFEFC4BBC1BB2FEF89EF90E0215002
:1001200080409040E1F700C0000088E30E945E003C
:100130008CE00E945E0086E00E945E0081E00E94EA
:100140005E0080E80E945E0087B3806B87BB83E51A
:100150008DB9CABB80E80E945E0080E690E00E94F4
:10016000490080EC0E945E008EE690E00E9449000B
:1001700085EE99EF9DBD8CBD1FBC85E08EBD84E0F2
:1001800089BF109280007894BC98809180008FB9CC
:10019000779BFECF809180004AE070E060E090E0C5
:1001A0000E94DB008DEC0E945E0090E080E00E94E7
:1001B0004900BC9AE9CFBB274A3031F4992322F495
:1001C000BDE2909581959F4F0C94E700BB27FB0102
:1001D0005527AA27880F991FAA1FA41710F0A41B40
:1001E00083955051B9F7A05DAA3308F0A95DA1939A
:1001F000009779F7B111B1931192CB010C940001E2
:10020000DC01FC01672F71917723E1F7329704C07D
:100210007C916D9370836291AE17BF07C8F3089508
:04022000F894FFCF80
:100224004D61737465722044657669636500536536
:100234006E64696E6720446174613A202020000076
:00000001FF
